:1000000018F09FE518F09FE518F09FE518F09FE5C0
:1000100018F09FE5606FA0B814F09FE514F09FE51D
:1000200004040000A0050000A0050000A0050000D9
:10003000A0050000A0050000A00500003801060C86
:04004000800000003C
:10020000D0B506000F00002400E0641C200000F0C0
:10021000ABF832003B0000F0B1F8F6D3D0BD10B51A
:1002200000241CE04448005D000444490860444840
:10023000006844490140424801604148006880210B
:10024000090101433E48016000203F49FFF7D8FF04
:100250003B4800683D49014039480160641C052C59
:10026000E0DB10BD80B50006000E000433490860D5
:100270003348006833490140314801603048006824
:100280008021090101432E48016000202E49FFF71B
:10029000B7FF2B4800682D4901402948016001BD86
:1002A00038B5050000241CE0285D000423490860DF
:1002B000234800688021490001432148016020480B
:1002C00000688021090101431D48016000201E498A
:1002D000FFF796FF1A4800681C4901401848016062
:1002E000641C285D0028DFD131BD19480021016060
:1002F0001848002101601848006880214900014326
:100300001548016014480068802109010143124822
:1003100001601248FF2109040160FFF780FF80207F
:10032000FFF7A0FF0E48FFF7BBFFC020FFF79AFFC3
:100330000C48FFF7B5FFF2E720010040108002E013
:10034000008002E0FFFEFFFF00FEAF40FFF7FFFF6F
:1003500000C002E014C002E0088002E0188002E061
:10036000780500008C0500007847C0460010B0E119
:100370004214A0130F00001A1EFF2FE17847C04659
:1003800080C9A0E381007CE183007C911EFF2F8166
:1003900001C083E18CC090E10CC092E10200002A10
:1003A000030051E1020050011EFF2FE10100531133
:1003B000000052011EFF2FE1400B50E30008A03166
:1003C00040174132400750E30004A0318018413209
:1003D000400550E30002A03140184132400450E390
:1003E0000001A03180194132800450E38000A03127
:1003F00040194132C01941E2A01581E0800AA0E114
:100400001EFF2FE100000FE11F00C0E3120080E398
:1004100000F021E134D09FE507D0CDE31F00C0E319
:10042000110080E300F021E124D09FE507D0CDE367
:100430001F00C0E31F0080E300F021E114D09FE51E
:1004400007D0CDE30000A0E10000A0E10B0000EA2E
:1004500028210040283100402811004000C09FE5BD
:100460001CFF2FE1A504000000C09FE51CFF2FE149
:10047000EB02000000C09FE51CFF2FE1F904000023
:100480000100A0E3F4FFFFEB000050E30500001BB8
:100490000000A0E3F3FFFFEBF5FFFFEB180000EB1C
:1004A000FDFFFFEA0120704710402DE93C109FE559
:1004B0000F1081E0381081E234409FE50F4084E066
:1004C000304084E2050000EA002091E5040081E26A
:1004D000011082E00FE0A0E111FF2FE10010A0E188
:1004E000040051E1F7FFFF1A1040BDE81EFF2FE1A5
:1004F000740000008400000080B500F011F809BC11
:10050000184700000000A0E12620A0E3802B82E332
:100510000210A0E11800A0E3563412EFFBFFFFEA3F
:100520007847C0460070B0E10700B0E1F4FFFFEB90
:10053000FDFFFFEA38B401210268001D002A0FD038
:1005400003684468C31808300C4202D04D466D1E43
:1005500064191D681B1D2560241D121FECD0F8E7CF
:1005600032BC7047D1FFFFFF08000000D0FAFFFF48
:10057000200100400000000041524D3720535441FB
:1005800052544552204B4954000000002020205670
:10059000534B2D3231343820202020200000000021
:0805A000FEFFFFEA0EF0B0E1DE
:0400000500000404EF
:00000001FF
