:1000000018F09FE518F09FE518F09FE518F09FE5C0
:1000100018F09FE5606FA0B814F09FE514F09FE51D
:10002000740300006C0400006C0400006C04000009
:0C0030006C0400006C0400006C04000074
:1002000000B5002100E0491C8142FCD300BD4F48ED
:100210000068502101434D4801604D486C21016048
:100220004C48402101604C48462101604B48322136
:100230000160704738B505000C0046482021016078
:100240003220FFF7DDFF464800680828FBD1404810
:100250002821016043482D062D0E05603220FFF74E
:10026000CFFF3F4800681828FBD1394808210160BA
:100270003C482406240E04603220FFF7C1FF3848B2
:1002800000682828FBD1334810210160304808213C
:1002900001603220FFF7B4FF31BD10B584B068466D
:1002A00031491CC91CC00C390C3800240020040042
:1002B0002DE02406240E6846015D4020FFF7BAFFBA
:1002C0002406240E6846015D4220FFF7B3FF240692
:1002D000240E6846015D4420FFF7ACFF2406240E7F
:1002E0006846015D4620FFF7A5FF2406240E6846F8
:1002F000015D4820FFF79EFF2406240E6846015D3D
:100300004A20FFF797FF1948FFF77AFF641C24067D
:10031000240E0A2CCDDB1FBD1CB5684614490CC940
:100320000CC008390838FFF772FF002407E00021ED
:100330002406240E6846005DFFF77CFF641C24063B
:10034000240E062CF3DBFFF7A8FFFCE700C002E059
:1003500018C001E000C001E010C001E014C001E0DD
:1003600004C001E008C001E058040000FFFF0400E1
:100370006404000000000FE11F00C0E3120080E3EE
:1003800000F021E134D09FE507D0CDE31F00C0E3AA
:10039000110080E300F021E124D09FE507D0CDE3F8
:1003A0001F00C0E31F0080E300F021E114D09FE5AF
:1003B00007D0CDE30000A0E10000A0E10B0000EABF
:1003C00020210040203100402011004000C09FE566
:1003D0001CFF2FE11504000000C09FE51CFF2FE16A
:1003E0001903000000C09FE51CFF2FE11904000065
:1003F0000100A0E3F4FFFFEB000050E30000A0E1E8
:100400000000A0E3F3FFFFEBF5FFFFEB040000EBC0
:10041000FDFFFFEA0120704780B500F013F809BC2A
:100420001847000000502DE90000A0E12620A0E3BD
:10043000802B82E30210A0E11800A0E3563412EFF3
:10044000FBFFFFEA7847C0460070B0E10700B0E16B
:10045000F3FFFFEBFDFFFFEAC0F9A4B0999282F829
:100460008090000040424446484A0000FEFFFFEAF8
:040470000EF0B0E1F9
:040000050000037480
:00000001FF
