:1000000018F09FE518F09FE518F09FE518F09FE5C0
:1000100018F09FE5606FA0B814F09FE514F09FE51D
:10002000B00200000C0400000C0400000C040000EE
:0C0030000C0400000C0400000C04000094
:1002000000B5002000E0401C1C498842FBDB00BD1B
:100210001B491C4A0A601C4900220A601B498822AB
:10022000D2010A601A4902220A601A491A4A0A606F
:100230001A4908601A4908601A48022101601948E1
:1002400009210160704710B5002417488442FBDA89
:10025000164800680A301549086014480068FFF71E
:10026000D7FFFFF7CDFF114800680B49884202DB3A
:100270000E4800210160641CE7E70000DD05000076
:1002800000C002E0058008000C4001E04C4001E0A5
:10029000144001E0184001E0E02E0000204001E0A1
:1002A000484001E0044001E0E12E00002001004050
:1002B00000000FE11F00C0E3120080E300F021E125
:1002C00034D09FE507D0CDE31F00C0E3110080E3E9
:1002D00000F021E124D09FE507D0CDE31F00C0E36B
:1002E0001F0080E300F021E114D09FE507D0CDE3AB
:1002F0000000A0E10000A0E10E0000EA781100403B
:10030000881100402811004000C09FE51CFF2FE12C
:100310005D03000000C09FE51CFF2FE161030000AA
:1003200000C09FE51CFF2FE14702000000C09FE5D1
:100330001CFF2FE1930300000100A0E3F1FFFFEB9E
:10034000000050E3F2FFFF1B0000A0E3F3FFFFEB10
:10035000F5FFFFEB100000EBFDFFFFEA0120704707
:1003600010B5094979442031084C7C441E3405E01D
:100370000A68081D891800F00BF80100A142F7D1A6
:1003800010BC08BC1847C046740000008000000084
:10039000084780B500F012F809BC184700502DE955
:1003A0000000A0E12620A0E3802B82E30210A0E160
:1003B0001800A0E3563412EFFBFFFFEA7847C0466F
:1003C0000070B0E10700B0E1F3FFFFEBFDFFFFEAD3
:1003D00038B4012100220368001D002B0BD00468F3
:1003E000001D0C4202D04D466D1E64192260241D72
:1003F0001B1FF0D0FAE732BC70470000D5FFFFFFAB
:10040000040000002001004000000000FEFFFFEAA1
:040410000EF0B0E159
:04000005000002B045
:00000001FF
